:020000040000FA
:100000000C941C040C9444040C9444040C94440478
:100010000C9444040C9444040C9444040C94440440
:100020000C9444040C9444040C9444040C94440430
:100030000C9444040C9444040C9444040C94440420
:100040000C943D110C9444040C940B110C94E51089
:100050000C9444040C9444040C9444040C94440400
:100060000C9444040C944404F4113600102AA0FFAC
:10007000006183102BB0FF006183102C7000F4101E
:10008000281010F500F4113680102AA0FF00A0FF00
:1000900000102BB0FF006183102C7000F41136406B
:1000A000102AA0FF006183102BB0FF006183102C89
:1000B0007000F4113600102AA0FF00A0FF00102BE2
:1000C000B0FF006183102C7000F4113600102AA0DC
:1000D000FF006183102BB0FF006183102C7000FDC6
:1000E000F1F58005F08005F18032F4100180C71031
:1000F0001110131020102911253F113A0511360057
:10010000122A007F122B007F102CF500000000083F
:1001100000020100000304070000000000000000CE
:1001200000000000250028002B0000000000240033
:1001300027002A0004040404040404040202020246
:10014000020203030303030301020408102040809A
:100150000102040810200102040810205F000302BD
:1001600004040405061010FFFD0CFD0CFE0214042F
:10017000E12005001949210AC2094B3C286D4300C2
:10018000220844894D444E012318C808D345611400
:100190004661140D43548CA261888A51188551061A
:1001A000241AF7E9D2C5E9102591944CC9300EE222
:1001B000B0444B2425D190C619002521CC095D6D92
:1001C000A1348459126A499825699624D3924869C2
:1001D00092858916265918656136012620CC08DBE0
:1001E0000D3920C95A2CE9809223D310259A648AAC
:1001F000342513A7211AA2649016002707418947C6
:100200000C01280CE4E9CC45B528EB310B0B290D8A
:10021000E4E84C84B530EB298B6A002A0F7758D17B
:1002200085494549A4494994C60C2B0C9709D5C565
:100230006DC390C56D002C0952D9480C49A2002D00
:100240000714384B0C012E072209490C012F0DC54C
:10025000084BD6C25A9885B530043017C808530DDC
:100260009924858938844338844338844A18D98648
:1002700008310BC609D34543E83F0D033211C709C6
:10028000536D9570C8864C54DB9270F8003314C7D8
:1002900009D30C51A66843266AB33C6443B649436C
:1002A000043414C808D3C6EA988889166991944919
:1002B000C320CAE2303514C709D30CCB90C5F11066
:1002C000594275C8866C9386083617C808530D992D
:1002D00024658A2C0FD3A4884338848AA40D110086
:1002E000370EC70953FC9884699CC65537003818E7
:1002F000C808530D99248591162DDA90298B3688DC
:1003000043A848DA10013914C808530D99A488434A
:1003100038848A74982D5A64DB003A098209490CA2
:100320003932043B0BB2D9480C39322489023C0CD7
:100330008809558BCE3AA2233A223D0A4829551CFA
:1003400074D230083E0D880855E8888EE8882C3A2B
:10035000033F10C7084F6D913229992A5AE31CB503
:10036000014024DDF7D80E39208A3912658A1245FA
:100370008A94445A9444A624CAA29222659129C917
:10038000A14C950711411ACB08D9E6580EEDC80EBD
:10039000243A10C9913A0C61A8A55AAC0CD120425C
:1003A00018CB08593C6A9BA8899A71183471522558
:1003B00055522551194E004318CA09D90D4A322AFF
:1003C000F210EFC08EE8888ECC899C8CE12001442D
:1003D00019CC085B1C646D543555932559922559E9
:1003E000523555D3A66110014517CA08593C44A29D
:1003F000A44652494A075551A5542AA991383C466A
:1004000018CA08573C44A2A44652494A075551A568
:10041000544A75441E4600471BCB09DB0D4A344A3B
:100420007232273A90E890380CB1B24AAAB48D43A0
:100430009400481ACD085D5C8649155551155571D3
:1004400038AAA22AAAA22AAAD2B00C03490AC6082C
:100450004F9C44FF69184A17C908D30DAB0EE880BA
:100460000EE8800E689934D9A4301C42004B1ACC97
:10047000085B5C064934A65A2CE580A2038B2CADA0
:100480009A2A1A976119044C16CA08579C75444752
:10049000744447744447D4488DD4481C1E4D24CF1F
:1004A00008610CEA20ADE33A265A22265A22265346
:1004B00022464A24464A246693981933D32045831A
:1004C000004E1ECD085B0CE120ADE11056C4CA16EB
:1004D0004653982D61A884E9988EB134A811004F35
:1004E00018CB095BCE9A5552151D187260C8812130
:1004F0000714555235F3085017CB08573CDA5449C6
:10050000955449D48621D4211DD2211DB8025120F1
:10051000FBD95ACE9A5552151D187260C88121D246
:100520009452E99049F390434A0E28392201521718
:10053000CC08591C64D1AAA99A280EB3B48ABE4427
:10054000A2320C99025316C809550D49A20DE92192
:100550001EC4410987F49029C910015414CA0857D0
:100560007C9236DF421DD1111DD1111D9187095595
:100570001ACD085B9C06490EE5500EE5500EE5507D
:100580000EE5504EC51C184400561ACB08590CDA1B
:10059000B2666A26A65A2AC5520E2839B0233B9461
:1005A0006329005725CF08610CC9202D9A1A696A62
:1005B000660B352D9CA65449945849941C48A22496
:1005C00007341D0A73280C01581BCB08570CD9900F
:1005D000A89A984AF190233AA623431CA9A1A62AD7
:1005E000433604591BCC08599C86484DB558CB015D
:1005F0002547941CD2311DD3311DD39161035A1666
:10060000C908D50C83222AA114CA7640D6223112F9
:10061000137138085B0AE3E94C0C51FFD3005C0E00
:10062000C60A55A4711AA7711AA7711A5D0AE3E9DF
:100630004C4CFD4F43005E0E7859D5C9EA104699DF
:10064000248589285F0718E8501C04600733984BFD
:100650006405610F8709D30C91451227C5A448D2C0
:10066000226213C80853CCCE8326D9144DD1144D21
:1006700091A46402630E86084F4DCA100DA15591D6
:1006800016006412C80955CE6E8364D1144DD1147E
:100690004DB22D02650F8708516D156D38A8B22433
:1006A0000D0900660EC6084D4D8A511B24D1B74175
:1006B000016717B9D8520D894949244DD2247108D0
:1006C00073649844459486096819C90855EC800EEE
:1006D000E8800E28DB3269922669922669CA900C5E
:1006E00001690BC408CB483A34F965086A0CF4D7A1
:1006F0004AD9A1C99F9641016B19C90855EC800ED2
:10070000E8800E288322698A38A4832869962119F3
:10071000026C09C4084B4CFE97216D168E085F2CA5
:10072000D3364D369366D24C9A49B30CC9900C011E
:100730006E128908552CDB649334499334495386EF
:1007400064086F0F8708516D8A6DC8866CC814DB0A
:10075000047014B8D852289B6453344553344592DE
:10076000064D5687107113B8D8524D89A4688AA6D1
:10077000688A26D906D93A04720D87084F2CD262AE
:100780005254C72103730E8608D19C862C19976C8E
:10079000889605740FB6084FA5A13648A2A7448ACB
:1007A000160075128908554C93266992266992267F
:1007B00069DA900876118908530CC99068A65051DF
:1007C000E71DC8911077178D085B2C433224926681
:1007D000924249519779D9812C47B21078118808F3
:1007E000530CC9A2654A388F89962987007913B8B6
:1007F000D8520CC9A2658AA6A4E71C8835255C01DD
:100800007A0E8609511CB2491335691B86007B0B91
:10081000E3E94C2551972CEA2D7C06C10C557C7DD3
:100820000CE3E94C6451B724EA25027E092839D546
:100830004C43B4000000871111241FBECFEFD8E055
:10084000DEBFCDBF11E0A0E0B1E0E8E0FCE202C015
:1008500005900D92A633B107D9F722E0A6E3B1E0E7
:1008600001C01D92AC3EB207E1F714E0CCE1D4E048
:1008700004C02197FE010E94E815CB31D107C9F7CA
:100880000E94E4110C9402160C940000E0911F02E7
:10089000F091200280911A0280FF0CC050E040E0ED
:1008A0006BE070E08AE192E0099580911A028E7FF8
:1008B00080931A02E0911F02F091200250E040E084
:1008C0006AE070E08AE192E00995009729F02091B2
:1008D0001A02216020931A02089584E794E090930D
:1008E000810280938002089590E080E0089581E085
:1008F00090E00895E82FF0E0E45AFE4F849190E0F4
:10090000982F88273196E4918E0F911D0895EF92CC
:10091000FF920F931F93CF93DF9393E1899FE001A1
:100920001124CD5ADE4F6A8984E0689FF0011124BA
:10093000E15CFE4FE280F38000811181E889F98952
:100940008FE391E0099594E0899FF0011124E15C27
:10095000FE4F42815381208131818A8BC901801BE6
:10096000910B9A012E193F093B832A835B874A87A3
:10097000F986E8861D870C8797FD19C041E050E095
:10098000598348831F861E86FC01B9010E94D41535
:100990007D836C83CF01B9010E94D4159F838E8320
:1009A000DF91CF911F910F91FF90EF9008954FEF3E
:1009B0005FEF59834883EE27FF27E81BF90B41E0DF
:1009C00050E0421B530B5F874E87DFCFEF92FF92C1
:1009D0000F931F93CF93DF938C0183E1689FF00106
:1009E0001124E15CFE4F86A17F0194E2E90EF11C27
:1009F000EF01A696D701ED91FC91682F8FE391E06E
:100A00000995B4E08B9FF0011124E15CFE4F228137
:100A100033812017310711F48883ECCFDF91CF9118
:100A20001F910F91FF90EF90089590E0FC01E85B1B
:100A3000FE4F24918C5C9E4FFC018491882399F099
:100A400090E0880F991FFC01E65DFE4FA591B491DF
:100A5000FC01E05EFE4F859194918FB7F894EC9184
:100A6000E22BEC938FBF08956F5FFC0180896817BC
:100A700008F060E0862F08956150FC0180896817B6
:100A800010F06FEF680F862F0895AF92BF92CF924C
:100A9000DF92EF92FF920F931F93CF93DF936C013E
:100AA0007B018B01040F151FEB015E01AE18BF081F
:100AB000C017D10759F06991D601ED91FC910190D1
:100AC000F081E02DC6010995892B79F7C501DF91E9
:100AD000CF911F910F91FF90EF90DF90CF90BF903B
:100AE000AF900895FC01538D448D252F30E0842F65
:100AF00090E0821B930B541710F0CF960895019746
:100B00000895FC01918D828D981761F0A28DAE0F32
:100B1000BF2FB11D5D968C91928D9F5F9F73928FB9
:100B200090E008958FEF9FEF0895FC01918D828DE5
:100B3000981731F0828DE80FF11D858D90E00895B2
:100B40008FEF9FEF0895FC01918D228D892F90E00A
:100B5000805C9F4F821B91098F739927089589E7C5
:100B600091E00E94A30521E0892B09F420E0822F67
:100B7000089580E090E0892B29F00E94AF05811153
:100B80000C9400000895FC01A48DA80FB92FB11D8D
:100B9000A35ABF4F2C91848D90E001968F739927B3
:100BA000848FA689B7892C93A089B1898C91837091
:100BB00080648C93938D848D981306C00288F3898A
:100BC000E02D80818F7D80830895EF92FF920F93B7
:100BD0001F93CF93DF93EC0181E0888F9B8D8C8DE9
:100BE00098131AC0E889F989808185FF15C09FB7DD
:100BF000F894EE89FF896083E889F98980818370A0
:100C0000806480839FBF81E090E0DF91CF911F914E
:100C10000F91FF90EF900895F62E0B8D10E00F5F6F
:100C20001F4F0F731127E02E8C8D8E110CC00FB645
:100C300007FCFACFE889F989808185FFF5CFCE01DD
:100C40000E94C305F1CFEB8DEC0FFD2FF11DE35A90
:100C5000FF4FF0829FB7F8940B8FEA89FB89808160
:100C60008062CFCFCF93DF93EC01888D8823B9F0DA
:100C7000AA89BB89E889F9898C9185FD03C08081A7
:100C800086FD0DC00FB607FCF7CF8C9185FFF2CF24
:100C9000808185FFEDCFCE010E94C305E9CFDF91B2
:100CA000CF91089590E0FC01E45FFE4F2491FC0198
:100CB000E85BFE4F3491FC01EC5CFE4FE491EE23C7
:100CC000C9F0222339F0233001F1A8F4213019F1C1
:100CD000223029F1F0E0EE0FFF1FE05EFE4FA591FC
:100CE000B4918FB7F894EC91611126C030953E23F2
:100CF0003C938FBF08952730A9F02830C9F02430E5
:100D000049F7809180008F7D03C0809180008F77AC
:100D100080938000DFCF84B58F7784BDDBCF84B52F
:100D20008F7DFBCF8091B0008F778093B000D2CFC2
:100D30008091B0008F7DF9CF3E2BDACF3FB7F8948A
:100D400080913B0190913C01A0913D01B0913E0109
:100D500026B5A89B05C02F3F19F00196A11DB11D16
:100D60003FBFBA2FA92F982F8827BC01CD01620F52
:100D7000711D811D911D42E0660F771F881F991F0D
:100D80004A95D1F70895FC012085318582859385A8
:100D9000281739072CF54485558584819581480F9E
:100DA000591F558744878685978566817781860F89
:100DB000971F978786871816190664F460817181DA
:100DC000460F571F5587448742815381841B950BDB
:100DD000978786872F5F3F4F3187208781E008956F
:100DE00080E00895213069F038F0223079F0840FE6
:100DF000911D47FD9A950895860F911D67FD9A955F
:100E00000895841B910947FD93950895861B9109C8
:100E100067FD93950895213069F038F0223079F01C
:100E2000861B910967FD93950895840F911D47FDD9
:100E30009A950895860F911D67FD9A950895841BD4
:100E4000910947FD93950895DC011A964C911A97E4
:100E5000ED91FC911197249130E0042E02C035955C
:100E600027950A94E2F7842F860F883068F0319630
:100E70001196FC93EE93E49198E0941B01C0EE0F61
:100E80009A95EAF72E2B88501A968C938FEF9FEF46
:100E900001C0880F6A95EAF7809582230895AC0116
:100EA0004D5E5F4FDC011596ED91FC9165E170E0C0
:100EB0000994EF92FF920F931F93CF93DF937C01DE
:100EC0008B01D0E0C0E0C8018C1B9D0B18161906E1
:100ED0003CF0DF91CF911F910F91FF90EF9008951B
:100EE00080914002809331028091410280933202CE
:100EF000809142028093330210922E0210922D02B2
:100F0000D0933002C0932F02F0923502E092340267
:100F100010923702109236028AE192E00E944F0747
:100F20002196D1CF5F926F927F928F929F92AF92D4
:100F3000BF92CF92DF92EF92FF920F931F93CF93C6
:100F4000DF93EC01F62E642E8C0108591F4FF80137
:100F50007680C780F801D084D7185F2CDF1408F49E
:100F60005D2CF80184809580E4842E2D4C2D672D16
:100F7000828193810E94F2065C012E2D4C2D672DFB
:100F8000C4010E940B076620D9F02EA12F8B2FA140
:100F9000288F28A5298FBC8AAB8A9E8B8D8B852DA7
:100FA00090E09B8F8A8F2E2D30E03D8F2C8FCE01CD
:100FB0000E944F07FD1470F0FD18C394712CCACF26
:100FC000F80123852111F6CF29A52F8B2AA5288F7B
:100FD0002BA5E0CFF70CF801F682C782DF91CF9105
:100FE0001F910F91FF90EF90DF90CF90BF90AF9047
:100FF0009F908F907F906F905F900895CF93DF9335
:10100000CDB7DEB728970FB6F894DEBF0FBECDBFC1
:10101000DC0111964D915D916D917C9114974D83FA
:101020005E836F8378871A8219821C821B821596D1
:10103000ED91FC91AE014F5F5F4F6CE070E0099560
:1010400028960FB6F894DEBF0FBECDBFDF91CF91CB
:101050000895E0911F02F09120024BE152E06FE011
:1010600070E08AE192E009958AE192E00C94FE0733
:1010700080911A028E7F80931A021092240210929D
:10108000230281E090E090933B0280933A02109219
:101090007F0210927E0280938D021092E0021092E5
:1010A000E1021092E20287E794E09093220280939B
:1010B000210284E998E09093200280931F0210920D
:1010C0002C0210922B020E946D040E9446040E9482
:1010D00029081092E8021092E7021092EA02109298
:1010E000E9021092EB02ECEAF2E08FEF819392E0DA
:1010F000E93BF907D9F70895CF93DF93C6E1D2E032
:101100001AA61BA61CA68AE192E00E94FE076F8128
:1011100078858D819E810E9459078FEF8AA78BA7C2
:101120008CA7DF91CF9108956C30710551F0673134
:10113000710581F4DC011796ED91FC9167E170E097
:101140000994DC01A45ABF4F88E0FA0101900D9286
:101150008A95E1F781E090E00895EF92FF920F9376
:101160001F93CF93DF937C01EA018A01060F171FBB
:10117000C017D10739F4DF91CF911F910F91FF90E4
:10118000EF900895FE01449150E0D7015196ED9102
:10119000FC9130E020E060E170E0C7010995219604
:1011A000E7CF9A01DC015196ED91FC91AB0162E130
:1011B00070E00994AB01DC015196ED91FC9130E0B7
:1011C00020E06CE070E009940F931F93CF93DF93BE
:1011D0008C01EB01209729F4DF91CF911F910F91A2
:1011E000089568EE73E0C8010E94DA082197F2CFF3
:1011F000EF92FF920F931F93CF93C42F7C0136EC95
:10120000E30EF11CD7013C9134238C0109531F4F8D
:10121000611122C0332329F0F801308134233413C3
:1012200015C0622F70E0DC015196ED91FC9130E029
:1012300020E050E040E009959C2F9095F8018081D6
:1012400089238083D7018C91C82BCC93CF911F9198
:101250000F91FF90EF900895332321F0F801308132
:101260003423A1F7622F70E0DC015196ED91FC91DF
:1012700030E020E041E050E00995F80180818C2BBE
:10128000E0CF2FE041E00C94F8087F928F929F927C
:10129000AF92BF92CF92DF92EF92FF920F931F9384
:1012A000CF93DF938C01EB014C0188EC880E911CED
:1012B000FE016491E62EE2942FE0E222F62FFF7009
:1012C0007F2EEFEFEE0DEF3008F0D6C0F0E0E559DD
:1012D000F64F0C94E8157A097A097A093C0A3C0A17
:1012E000A409B909D009DF09ED09110A3C0A3C0A31
:1012F0003C0A230A5E018FEFA81AB80AD4016C9148
:1013000066956170C8010E944109F12CA501B701E1
:10131000C8010E94AD08C72CD12C772069F0AE0C13
:10132000BF1CF40160816170C8010E944109A501E0
:10133000B601C8010E94AD08FFEFEF1AFF0ACE0CFC
:10134000DF1CCC0DDD1DB4CFD4016C916170C801E0
:101350000E944109AE014F5F5F4FE72CF12CB701AE
:10136000C8010E94AD08BFEFEB1AFB0ACE0DDF1DCE
:101370009FCFF4016081669560956170C8010E94FD
:101380004109E72CF12C772039F0AE014F5F5F4F18
:10139000B701C8010E94AD08FFEFEF1AFF0AE6CFC0
:1013A000FE0131966491E72DF0E0FE2FEE276E0FDF
:1013B0007F2F711DC8010E94E408229679CFFE019B
:1013C00031966491E72DF0E0FE2FEE276E0F7F2F10
:1013D000711DC8010E94DA08F0CFFE013196F49029
:1013E0003196E4902396D4016C916170C8010E94FB
:1013F0004109D8015396ED91FC91549702C0F5959F
:10140000E7957A94E2F7EF21EE294E2F50E05196BE
:10141000ED91FC9130E020E060E170E0C8010995B9
:1014200047CFFE013196F4903196E4902396F40173
:1014300060816170C8010E944109D8015596ED9103
:10144000FC915697DBCF872D86958695813061F08C
:1014500020F0833069F021962BCF61702DE044E0BD
:10146000C8010E94F808F7CF61702EE042E0F8CF83
:101470006370F4016083EFCFDF91CF911F910F91E3
:10148000FF90EF90DF90CF90BF90AF909F908F90A4
:101490007F900895CF93DF93EC01A881B981A217C3
:1014A000B307ACF4EB01E881F9814E175F077CF4D8
:1014B000A417B5071CF4DC014D935C932E173F076E
:1014C0001CF4EB013983288381E090E002C090E0B6
:1014D00080E0DF91CF910895FC0125893689E25A99
:1014E000FF4F40815181241B350B37FD0AC03496D4
:1014F00081E090E0408151812417350724F080E09D
:10150000089580E090E00895FC0123893489E45A2D
:10151000FF4F40815181241B350B37FD0AC03496A3
:1015200081E090E0408151812417350724F080E06C
:10153000089580E090E008950F931F93CF93DF9379
:1015400000D000D0CDB7DEB78C01FC01178E168E0F
:10155000848D958D8130910509F484C034F4892BF4
:1015600009F440C081E090E044C08230910509F464
:10157000AAC00397B9F7C8010E94840A892BB9F160
:10158000F8018589968901969C838B83228D338D02
:10159000821B930B9A838983E25AFF4F40815181CA
:1015A000349620813181240F351FBE016D5F7F4F3E
:1015B000CE0101960E944A0A892BC9F08B819C8139
:1015C00029813A81AC01421B530BF801538F428FA2
:1015D000019725893689281B390B378F268F968BE3
:1015E000858BC0CFC8010E946C0A892B59F490E00A
:1015F00080E00F900F900F900F90DF91CF911F918F
:101600000F910895F801238934893A832983828DC3
:10161000938D820F931F9C838B83E45AFF4F4081ED
:101620005181349620813181240F351FBE016D5FB9
:101630007F4FCE0101960E944A0A892BC1F229816F
:101640003A81F80183899489A901481B590B578F66
:10165000468F348B238B8B819C81821B930B938FC2
:10166000828F80CFC8010E94840A892B09F4BFCFE2
:10167000F801258936893A832983828D938D820FDB
:10168000931F9C838B83E25AFF4F40815181349694
:1016900020813181240F351FBE016D5F7F4FCE0148
:1016A00001960E944A0A892B09F4A1CF29813A8127
:1016B000F80185899689A901481B590B578F468FD8
:1016C000368B258BC8CFC8010E946C0A892B09F480
:1016D0008ECFF8018389948901969C838B83228D18
:1016E000338D821B930B9A838983E45AFF4F408189
:1016F0005181349620813181240F351FBE016D5FE9
:101700007F4FCE0101960E944A0A892B09F46FCFC0
:101710008B819C8129813A81AC01421B530BF801DA
:10172000538F428F019723893489281B390B378FB8
:10173000268F948B838B16CFEF92FF920F931F937C
:10174000CF93DF9300D000D0CDB7DEB76F307105F7
:1017500009F485C08C01603171055CF46A30710553
:10176000A9F16B30710509F473C0C8010E94940897
:1017700064C06431710509F47DC065317105A9F754
:101780000E949C0A892B09F467C0F801848D958D0D
:101790008130910509F4A2C08230910509F4C2C0DC
:1017A00069EC70E0892B09F49BC0E588F68883E832
:1017B00090E08E199F09968B858B65E870E0C801D3
:1017C0000E944509F801F68AE58A8DC086E990E015
:1017D0009A83898380EA90E09C838B83D801519619
:1017E000ED91FC917801B7ECEB0EF11CD7018C91D7
:1017F00083FF08C030E020E050E040E06BE070E0A4
:10180000C8010995F7018081877F8083F801EA5339
:10181000FF4F1082D8015196ED91FC919E012F5FF0
:101820003F4F50E040E06AE070E0C8010995009742
:1018300021F0F7012081286020830F900F900F90F6
:101840000F90DF91CF911F910F91FF90EF9008952E
:101850006EE770E00E94450981E090E0EECF84E8F9
:1018600090E0DA0111969C938E9313969C938E933D
:101870001297F2CF0E94840A892B71F3C8010E944B
:101880006C0A892B49F368E670E0C8010E9445099B
:10189000F801808D9789987F282F229526952770AB
:1018A000922B9983F8E08F9FC0011124807ED8018C
:1018B00059969C91969596959695892B8A83AE011B
:1018C0004F5F5F4F61E070E0C8010E94D1082EE0D9
:1018D00042E061E0C8010E94F808BECF62EB70E010
:1018E000C8010E944509D80158968C91589757967F
:1018F0009C91987F282F229526952770922B99836B
:10190000B8E08B9FC0011124807EF801918D9695DF
:1019100096959695892B8A83628D738DAE014F5F64
:101920005F4FD2CFE388F48883E890E08E199F0957
:10193000948B838B6CE970E0C8010E944509F80123
:10194000F48AE38AD0CFCF93DF936A30710539F000
:101950006B307105A9F0DF91CF910C949C0BEC01D9
:101960006AE070E00E949C0B009739F06FED70E028
:10197000CE010E94450981E090E0DF91CF9108956A
:101980006BE070E0E8CFFC0120818681280F208386
:101990008485958542855385840F951F9587848717
:1019A00040855185841795073CF03281230F2083B1
:1019B000841B950B9587848708952F923F924F92B1
:1019C0005F926F927F928F929F92AF92BF92CF92CF
:1019D000DF92EF92FF920F931F93CF93DF9300D08C
:1019E0001F92CDB7DEB7FC016731710509F0DBC08E
:1019F000828D938D6C0121E0C21AD1082601D7FC9B
:101A00002C01559447945F0186E2A80EB11C7F011A
:101A10001F01AAE22A0E311C8F0166246394712CE7
:101A200088248A94982CD50113962C9113974D9164
:101A30005D01D801D3964C93D397241B330BD796D3
:101A40003C932E93D697DB96DC92CE92DA97D5967E
:101A50007C926E92D497C901B6010E94D415D80128
:101A6000D9967C936E93D89737FF0BC0319521950B
:101A70003109D7963C932E93D697D5969C928E9209
:101A8000D497D801D6968D919C91B6010E94D41519
:101A9000D801DD969C938E93DC97DF965C924E92F4
:101AA000DE97D2964C93025F1F4F0215130509F083
:101AB000BACF6F015F01B2E3AB0EB11CCF010E9440
:101AC0009C0A892B09F46FC0D6015E96ED91FC91BA
:101AD0003E2FD701D8962C91D897329F202D1124D4
:101AE000D2962C93D297DA966D917C91DB97DC9607
:101AF0004D915C91E49FC001E59F900DF49F900D86
:101B00001124AB0177FF02C04F5F5F4F559547959A
:101B1000840F951F0E94D415D701D4964D915C91E6
:101B2000D59757FD58C0620FD2966C93D701DF96B8
:101B30009C938E93DE97D2968C91D297D3969C915C
:101B4000D397890FD2968C93BEE0EB0EF11C0E1545
:101B50001F0509F0BECFF601848D958D813091056A
:101B6000F1F182309105F1F1892B09F04CC069EC5B
:101B700070E0C6010E94450910E000E07601F0E443
:101B8000EF0EF11C46012EE4820E911CF601828DAF
:101B9000938D081719070CF447C02EE042E061E06E
:101BA000C6010E94F80881E090E00F900F900F901E
:101BB000DF91CF911F910F91FF90EF90DF90CF9029
:101BC000BF90AF909F908F907F906F905F904F905D
:101BD0003F902F900895261BD2962C93A7CF62EBAF
:101BE00070E0C7CF0389148983E890E0801B910BD4
:101BF000948B838B6CE970E0C6010E944509F60165
:101C0000148B038BB9CF0589168983E890E0801B7C
:101C1000910B968B858B65E870E0C6010E944509A3
:101C2000F601168B058BA8CFD7018C91F60192A9EE
:101C3000987F282F229526952770922B9983F8E07C
:101C40008F9FC0011124807ED4019C91969596951A
:101C50009695892B8A83AE014F5F5F4F61E070E0FC
:101C6000C6010E94D108C5010E94C30CC7010E9491
:101C7000C30CC4010E94C30C0F5F1F4F87CF2F926C
:101C80003F924F925F926F927F928F929F92AF920C
:101C9000BF92CF92DF92EF92FF920F931F93CF9359
:101CA000DF93EC01462E3C0125ED620E711CF30121
:101CB00050807C01F3EDEF0EF11CF701A080B180A4
:101CC0006C01F1EDCF0ED11CF601808091808C016A
:101CD0000C5F1F4FF1E05F1609F43FC05F1690F1F3
:101CE00022E0521609F444C083E0581609F44BC0B0
:101CF000FE01E259FF4F918280823296B182A0822A
:101D0000389650827097808191814596E0E6E4157F
:101D100008F044C0FE01E457FF4F20813181820F5B
:101D2000931F9C012F5F3F4FF9014491442309F415
:101D3000DDC0FC0144914416C9F1F9012491820FE0
:101D4000911DEFCFFC01E659FF4F0190F081E02D8E
:101D5000C8010995A80EB91ECBCFFC01E659FF4F6B
:101D60000190F081E02DC8010995881A990AC0CF29
:101D7000FC01E659FF4F0190F081E02DC801099563
:101D8000A81AB90AB5CFFE01E659FF4F0190F081BC
:101D9000E02DC8010995880E991EAACFF0E4F4152C
:101DA00008F0BFCFFE01E657FF4FB7CF009709F409
:101DB0009DC05E01FCE6AF0EB11CF50112860296D5
:101DC0009183808371966081C5010E942407F5018B
:101DD000808772966081C5010E942407482EF50114
:101DE000818773962080622DC5010E942407982E5A
:101DF000FE01E058FF4F8080682DC5010E94240736
:101E0000382EFE01EF57FF4F5080652DC5010E940F
:101E100024075A9441E050E09A0101C0220F5A94DD
:101E2000EAF7582E521AF501808518160CF04BC0AF
:101E30002A94CA0101C0880F2A94EAF7981A2484C8
:101E4000340C8A9401C0440F8A94EAF7842E8318D4
:101E5000222D482D692D828193810E94F206F50181
:101E600093838283222D482D692D848195810E9440
:101E70000B07F50195838483168217824E01FBE7D9
:101E80008F0E911CC458DF4FF4016081C5010E9480
:101E90002407282E6881C5010E942407382E40E0BF
:101EA000622DC8010E94920741E0632DC8010E9483
:101EB000920761E0C5010E9424078111F0CFF5016E
:101EC000878184150CF3852D550C990BF301208126
:101ED000213059F170F0F601223009F0F70120812C
:101EE0003181281B390B318320830AC090E080E0C8
:101EF000EDCFF60120813181820F931F9183808382
:101F000081E090E0DF91CF911F910F91FF90EF90D2
:101F1000DF90CF90BF90AF909F908F907F906F9009
:101F20005F904F903F902F900895F701E3CFEF928D
:101F3000FF920F931F93CF93DF93EC01042F7C014B
:101F400086E9E80EF11CF7018081662339F161E032
:101F50000E945206CB56DF4F61E088810E945206F4
:101F600060E088810E94520618E0F701808161E0FC
:101F700007FF60E00E94520661E088810E945206DD
:101F800060E088810E945206000F115071F7DF91C6
:101F9000CF911F910F91FF90EF90089560E0D8CFFF
:101FA000CF92DF92EF92FF920F931F93CF93DF9325
:101FB000EC018A017901FB013A97EC30F10508F058
:101FC000AAC0EB51F04F0C94E81556108B109610E8
:101FD000A210AB108B10AE102F101410F10F421086
:101FE000B6106C0187ECC80ED11C0115110509F45F
:101FF00092C0F60160816170F7014081CE010E94BC
:10200000970FF60160816170F7014181CE010E9456
:10201000970FF60160816170F7014281CE010E9445
:10202000970F01501109E1CF6C01E7ECCE0ED11CE6
:102030000115110509F46FC0F60160816170F701A7
:102040004081CE010E94970FF60160816170F70117
:102050004181CE010E94970F01501109E9CF6C0117
:10206000F7ECCF0ED11C0115110509F454C0F6018F
:1020700060816170F7014081CE010E94970F01508D
:102080001109F1CF020F131F6C0187ECC80ED11C90
:102090000E151F0509F43FC0F70141917F01F601BC
:1020A00060816170CE010E94970FF2CF6C01E6E96A
:1020B000CE0ED11CF60180810E9415057E01F5E946
:1020C000EF0EF11CF70180810E9415058E010C5660
:1020D0001F4FF80180818F3F11F00E941505CE56E9
:1020E000DF4F88818F3F11F00E94150561E0F601F6
:1020F00080810E94520660E0F70180810E945206B2
:10210000F80180818F3F19F061E00E9452068881BA
:1021100061E08F3FE9F481E090E0DF91CF911F9182
:102120000F91FF90EF90DF90CF90089542305105CE
:1021300090F3CA01880F991F880F991F059701977F
:10214000F1F7E9CFCE56DF4F88818F3F21F3602F23
:102150000E945206E0CFCC56DF4FF6CFFC01E95388
:10216000FF4F608161700E94970FD5CFFC01E9534A
:10217000FF4F80818170D82E0115110561F2F701A2
:102180008081882329F0DD24D394813009F4D12C77
:10219000F70141816D2DCE010E94970FF2E0EF0E05
:1021A000F11C01501109E8CF089590E080E00895F6
:1021B000FC0101900020E9F73197AF01481B590B52
:1021C000BC0186E192E00C9445051F920F920FB678
:1021D0000F9211242F933F934F935F936F937F93AD
:1021E0008F939F93AF93BF93EF93FF9389E791E012
:1021F0000E94C305FF91EF91BF91AF919F918F9185
:102200007F916F915F914F913F912F910F900FBEF2
:102210000F901F9018951F920F920FB60F921124D6
:102220002F938F939F93EF93FF93E0918901F09108
:102230008A018081E0918F01F091900182FD1BC0A5
:102240009081809192018F5F8F732091930182170B
:1022500041F0E0919201F0E0E758FE4F958F8093B6
:102260009201FF91EF919F918F912F910F900FBE4F
:102270000F901F9018958081F4CF1F920F920FB688
:102280000F9211242F933F938F939F93AF93BF93FC
:102290008091370190913801A0913901B0913A01B4
:1022A0003091360123E0230F2D3758F50196A11DFB
:1022B000B11D209336018093370190933801A0938C
:1022C0003901B0933A0180913B0190913C01A0917A
:1022D0003D01B0913E010196A11DB11D80933B01CE
:1022E00090933C01A0933D01B0933E01BF91AF910B
:1022F0009F918F913F912F910F900FBE0F901F9044
:10230000189526E8230F0296A11DB11DD2CFCF93B9
:10231000DF93E9E7F1E01382128288EE93E0A0E018
:10232000B0E084839583A683B78384E091E09183B2
:10233000808385EC90E09587848784EC90E0978794
:10234000868780EC90E0918B808B81EC90E0938B82
:10235000828B82EC90E0958B848B86EC90E0978B5F
:10236000868B118E128E138E148EC6E1D2E01B82E4
:102370001A8286E191E0998388830E94380886E179
:1023800091E0998388830E94380883EA9CE09093C7
:10239000E4028093E3028DED9CE09093E60280934B
:1023A000E5028DE08093AF028BE08093B00288E07D
:1023B0008093AC0289E08093AE0286E191E099833C
:1023C0008883DF91CF910895789484B5826084BD2D
:1023D00084B5816084BD85B5826085BD85B5816029
:1023E00085BD80916E00816080936E0010928100A7
:1023F0008091810082608093810080918100816062
:102400008093810080918000816080938000809122
:10241000B10084608093B1008091B00081608093AE
:10242000B00080917A00846080937A0080917A0075
:10243000826080937A0080917A00816080937A0034
:1024400080917A00806880937A001092C100E091B8
:102450008901F0918A0182E08083E0918501F09109
:1024600086011082E0918701F09188018FEC8083D2
:1024700010929101E0918D01F0918E0186E08083B0
:10248000E0918B01F0918C01808180618083E091EB
:102490008B01F0918C01808188608083E0918B01B9
:1024A000F0918C01808180688083E0918B01F091B4
:1024B0008C0180818F7D80830E949E064B015C0190
:1024C00072E3C72ED12CE12CF12C0E949E066819D4
:1024D00079098A099B09683E734081059105A8F333
:1024E00021E0C21AD108E108F10888EE880E83E0E5
:1024F000981EA11CB11CC114D104E104F10429F7F8
:102500008091E5029091E6024091E3025091E4024D
:1025100020911A022E7F20931A0210922402109208
:10252000230221E030E030933B0220933A021092E4
:102530007F0210927E0220938D021092E002109290
:10254000E1021092E202009711F487E794E0909381
:102550002202809321025093200240931F0280EDBB
:102560009FE090932C0280932B020E946D040E94A6
:1025700046040E94290881E080938D020E947C0815
:1025800080917E0290917F028C55914009F488C021
:10259000ECE5F1E0F0937F02E0937E02E491E093BA
:1025A0008F02EDE5F1E0E491E0939002EEE5F1E0D9
:1025B000E491E0939102EFE5F1E0E491E09392027F
:1025C000E0E6F1E0E491E0939302E1E6F1E0E491EA
:1025D000E0939402E2E6F1E0E491E0939502E3E611
:1025E000F1E0E491E0939602E4E6F1E0E491E09317
:1025F0009702E5E6F1E0E491E0939802E6E6F1E087
:10260000E491E0939902E7E6F1E0E491E0939A0225
:10261000E8E6F1E0E491E0939B02E9E6F1E0E49181
:10262000E0939C02EAE6F1E0E491E0939D02EBE6A0
:10263000F1E0E491E0939E02ECE6F1E0E491E093B6
:102640009F0281E10E947A049093A1028093A002EC
:1026500083E10E947A049093A3028093A202809166
:102660007E0290917F02892BD9F080919C02809309
:10267000AA0240919D024093AB029091A902992336
:1026800079F0913009F060C090919E02891714F49E
:102690009093AA0280919F02841714F48093AB0256
:1026A0003EE4C32ED12C42E4242E312C56E3452E99
:1026B000512C64E3662E65E0762EC8E7D0E093E700
:1026C000892E912C0DE710E02DE2A22EB12C89E786
:1026D00091E00E94A305892BD1F30E947C081092FF
:1026E0004002FF24FA94F0924102F092420264E820
:1026F00070E084E890E00E94590789E791E00E9429
:1027000081058134E1F5109240021092410210924D
:10271000420264E870E084E890E00E945907F09279
:102720004002F092410210924202B092E802A0925E
:10273000E70281E490E09093EA028093E9028EE15F
:1027400091E00E94D81029C03091990220919B02FB
:10275000082E000C990B622F022E000C770B630FD2
:10276000711D37FD7A95861797071CF4320F309349
:10277000AA0224170CF094CF2093AB0291CF82349D
:10278000C9F410924002F09241021092420267E2B4
:1027900070E087E290E00E94590780E090E0892B8A
:1027A00009F495CF0E94AF05882309F486CF0E94D3
:1027B000000083CF803389F4F0924002F09241020E
:1027C000F0924202D093E802C093E7021093EA022B
:1027D0000093E90283E291E0B4CF813389F4F0926F
:1027E0004002F0924102F0924202D093E802C0937C
:1027F000E7021093EA020093E90285E291E0A1CF9B
:10280000823389F4F0924002F0924102F092420247
:10281000D093E802C093E7021093EA020093E90222
:1028200087E291E08ECF833389F4F0924002F092F8
:102830004102F0924202D093E802C093E702109363
:10284000EA020093E90289E291E07BCF843389F4C4
:10285000F0924002F0924102F0924202D093E802DC
:10286000C093E7021093EA020093E9028BE291E041
:1028700068CF853389F4F0924002F0924102F092E1
:102880004202D093E802C093E7021093EA02009359
:10289000E90281E291E055CF863391F48FEF809386
:1028A00040028093410280934202D093E802C09399
:1028B000E7021093EA020093E9028DE291E041CF32
:1028C000873391F48FEF809340028093410280938D
:1028D0004202D093E802C093E7021093EA02009309
:1028E000E9028FE291E02DCF883391F48FEF80934E
:1028F00040028093410280934202D093E802C09349
:10290000E7021093EA020093E90281E391E019CF14
:10291000893391F48FEF809340028093410280933A
:102920004202D093E802C093E7029092EA028092BA
:10293000E90283E391E005CF8FEF8093400280931B
:1029400041028093420283E390E0909340018093A0
:102950003F01D0924201C092410180E590E0909306
:10296000440180934301D0924601C09245013092C8
:1029700048012092470150924A014092490183E068
:1029800080934F0170927701609276018CE395E01D
:10299000909364018093630110926501EFE3F1E08D
:1029A0008EE4E82EF12C8EE490E051E040E02681A8
:1029B0003781821793070CF4C9012E153F0514F4D3
:1029C000452F79013496513009F4ABC0409365012D
:1029D0008E199F099093520180935101892B09F41C
:1029E000DCCE4093780161E0C7010E94E60460E01C
:1029F000C7010E94E60481E080935001A091650127
:102A000094E0A99FD0011124A15CBE4FE091780110
:102A100024E0E29FF0011124E15CFE4F2D913C91F6
:102A2000808191812817390709F47DC010925001E7
:102A3000E0905101F090520180E00E94870481E013
:102A40000E94870480915001882341F083E591E042
:102A50000E94C30686E691E00E94C30660916E0163
:102A600070916F0177FD47C080911D0290911E0209
:102A7000681779070CF03FC040915F0150916001E9
:102A80008091720190917301481759070CF058C05A
:102A900097FD31C020911B0230911C024217530751
:102AA00054F557FF02C050E040E0E0914002E0934F
:102AB0003102E0914102E0933202E0914202E09360
:102AC000330250932E0240932D0270933002609394
:102AD0002F02281739070CF4C901841B950B90931A
:102AE00035028093340210923702109236028AE146
:102AF00092E00E944F0783E591E00E94C30688237D
:102B000009F44AC086E691E00E94C306882309F4CE
:102B100047C081E0E81AF1081E141F040CF49ECF90
:102B20003CCE52E044CF80915101909152010197E7
:102B30009093520180935101892B09F079CF2DCECA
:102B400057FDD9CF20911B0230911C0282179307A9
:102B500094F697FF02C050E040E0E0914002E0931D
:102B60003102E0914102E0933202E0914202E093AF
:102B7000330290932E0280932D0270933002609363
:102B80002F02421753070CF49A01281B390B30937C
:102B9000350220933402A7CF80E00E948704ABCF98
:102BA00081E00E948704AECF97FB072E16F40094B5
:102BB00007D077FD09D00E94EE1507FC05D03EF442
:102BC000909581959F4F0895709561957F4F0895D9
:102BD000EE0FFF1F0590F491E02D0994AA1BBB1B7B
:102BE00051E107C0AA1FBB1FA617B70710F0A61B0D
:102BF000B70B881F991F5A95A9F780959095BC012E
:102C0000CD010895F894FFCF00000000E5054505CB
:102C100072053206A30581059505000000003F0EF0
:102C20004505D510D4103136393500300031003229
:0E2C3000003300340036003700380039000051
:107E0000112484B714BE81FFF0D085E080938100F7
:107E100082E08093C00088E18093C10086E0809377
:107E2000C20080E18093C4008EE0C9D0259A86E02C
:107E300020E33CEF91E0309385002093840096BBD3
:107E4000B09BFECF1D9AA8958150A9F7CC24DD24C4
:107E500088248394B5E0AB2EA1E19A2EF3E0BF2EE7
:107E6000A2D0813461F49FD0082FAFD0023811F036
:107E7000013811F484E001C083E08DD089C08234E0
:107E800011F484E103C0853419F485E0A6D080C0E4
:107E9000853579F488D0E82EFF2485D0082F10E0AE
:107EA000102F00270E291F29000F111F8ED06801E7
:107EB0006FC0863521F484E090D080E0DECF843638
:107EC00009F040C070D06FD0082F6DD080E0C81688
:107ED00080E7D80618F4F601B7BEE895C0E0D1E017
:107EE00062D089930C17E1F7F0E0CF16F0E7DF06D8
:107EF00018F0F601B7BEE89568D007B600FCFDCFD4
:107F0000A601A0E0B1E02C9130E011968C91119780
:107F100090E0982F8827822B932B1296FA010C0160
:107F200087BEE89511244E5F5F4FF1E0A038BF0790
:107F300051F7F601A7BEE89507B600FCFDCF97BE46
:107F4000E89526C08437B1F42ED02DD0F82E2BD052
:107F50003CD0F601EF2C8F010F5F1F4F84911BD097
:107F6000EA94F801C1F70894C11CD11CFA94CF0C13
:107F7000D11C0EC0853739F428D08EE10CD085E9AC
:107F80000AD08FE07ACF813511F488E018D01DD067
:107F900080E101D065CF982F8091C00085FFFCCF94
:107FA0009093C60008958091C00087FFFCCF809118
:107FB000C00084FD01C0A8958091C6000895E0E648
:107FC000F0E098E1908380830895EDDF803219F02E
:107FD00088E0F5DFFFCF84E1DECF1F93182FE3DFCA
:107FE0001150E9F7F2DF1F91089580E0E8DFEE27F6
:047FF000FF270994CA
:027FFE00040479
:00000001FF
